{
  "_format": "hh-sol-artifact-1",
  "contractName": "Roulette",
  "sourceName": "contracts/Roulette.sol",
  "abi": [
    {
      "inputs": [
        {
          "internalType": "address",
          "name": "vrfCoordinator",
          "type": "address"
        },
        {
          "internalType": "uint64",
          "name": "subId",
          "type": "uint64"
        },
        {
          "internalType": "bytes32",
          "name": "_keyHash",
          "type": "bytes32"
        },
        {
          "internalType": "uint32",
          "name": "_callbackGasLimit",
          "type": "uint32"
        },
        {
          "internalType": "uint16",
          "name": "_confirmations",
          "type": "uint16"
        },
        {
          "internalType": "uint32",
          "name": "_numWords",
          "type": "uint32"
        }
      ],
      "stateMutability": "nonpayable",
      "type": "constructor"
    },
    {
      "inputs": [
        {
          "internalType": "address",
          "name": "have",
          "type": "address"
        },
        {
          "internalType": "address",
          "name": "want",
          "type": "address"
        }
      ],
      "name": "OnlyCoordinatorCanFulfill",
      "type": "error"
    },
    {
      "anonymous": false,
      "inputs": [
        {
          "indexed": true,
          "internalType": "address",
          "name": "player",
          "type": "address"
        },
        {
          "indexed": false,
          "internalType": "string",
          "name": "username",
          "type": "string"
        },
        {
          "indexed": false,
          "internalType": "uint8",
          "name": "number",
          "type": "uint8"
        },
        {
          "indexed": false,
          "internalType": "uint256",
          "name": "amount",
          "type": "uint256"
        }
      ],
      "name": "BetPlaced",
      "type": "event"
    },
    {
      "anonymous": false,
      "inputs": [
        {
          "indexed": true,
          "internalType": "address",
          "name": "player",
          "type": "address"
        },
        {
          "indexed": false,
          "internalType": "string",
          "name": "username",
          "type": "string"
        },
        {
          "indexed": false,
          "internalType": "uint8",
          "name": "winningNumber",
          "type": "uint8"
        },
        {
          "indexed": false,
          "internalType": "bool",
          "name": "won",
          "type": "bool"
        }
      ],
      "name": "BetResult",
      "type": "event"
    },
    {
      "inputs": [
        {
          "internalType": "uint256",
          "name": "",
          "type": "uint256"
        }
      ],
      "name": "bets",
      "outputs": [
        {
          "internalType": "address",
          "name": "player",
          "type": "address"
        },
        {
          "internalType": "string",
          "name": "username",
          "type": "string"
        },
        {
          "internalType": "uint8",
          "name": "number",
          "type": "uint8"
        },
        {
          "internalType": "uint256",
          "name": "amount",
          "type": "uint256"
        }
      ],
      "stateMutability": "view",
      "type": "function"
    },
    {
      "inputs": [],
      "name": "callbackGasLimit",
      "outputs": [
        {
          "internalType": "uint32",
          "name": "",
          "type": "uint32"
        }
      ],
      "stateMutability": "view",
      "type": "function"
    },
    {
      "inputs": [],
      "name": "houseEdge",
      "outputs": [
        {
          "internalType": "uint256",
          "name": "",
          "type": "uint256"
        }
      ],
      "stateMutability": "view",
      "type": "function"
    },
    {
      "inputs": [],
      "name": "keyHash",
      "outputs": [
        {
          "internalType": "bytes32",
          "name": "",
          "type": "bytes32"
        }
      ],
      "stateMutability": "view",
      "type": "function"
    },
    {
      "inputs": [],
      "name": "minBet",
      "outputs": [
        {
          "internalType": "uint256",
          "name": "",
          "type": "uint256"
        }
      ],
      "stateMutability": "view",
      "type": "function"
    },
    {
      "inputs": [],
      "name": "numWords",
      "outputs": [
        {
          "internalType": "uint32",
          "name": "",
          "type": "uint32"
        }
      ],
      "stateMutability": "view",
      "type": "function"
    },
    {
      "inputs": [],
      "name": "owner",
      "outputs": [
        {
          "internalType": "address",
          "name": "",
          "type": "address"
        }
      ],
      "stateMutability": "view",
      "type": "function"
    },
    {
      "inputs": [
        {
          "internalType": "string",
          "name": "username",
          "type": "string"
        },
        {
          "internalType": "uint8",
          "name": "number",
          "type": "uint8"
        }
      ],
      "name": "placeBet",
      "outputs": [],
      "stateMutability": "payable",
      "type": "function"
    },
    {
      "inputs": [
        {
          "internalType": "uint256",
          "name": "requestId",
          "type": "uint256"
        },
        {
          "internalType": "uint256[]",
          "name": "randomWords",
          "type": "uint256[]"
        }
      ],
      "name": "rawFulfillRandomWords",
      "outputs": [],
      "stateMutability": "nonpayable",
      "type": "function"
    },
    {
      "inputs": [],
      "name": "requestConfirmations",
      "outputs": [
        {
          "internalType": "uint16",
          "name": "",
          "type": "uint16"
        }
      ],
      "stateMutability": "view",
      "type": "function"
    },
    {
      "inputs": [],
      "name": "s_subscriptionId",
      "outputs": [
        {
          "internalType": "uint64",
          "name": "",
          "type": "uint64"
        }
      ],
      "stateMutability": "view",
      "type": "function"
    },
    {
      "inputs": [],
      "name": "withdraw",
      "outputs": [],
      "stateMutability": "nonpayable",
      "type": "function"
    },
    {
      "stateMutability": "payable",
      "type": "receive"
    }
  ],
  "bytecode": "0x60a060405260c8600355662386f26fc100006004553480156200002157600080fd5b5060405162001d4c38038062001d4c833981810160405281019062000047919062000303565b858073ffffffffffffffffffffffffffffffffffffffff1660808173ffffffffffffffffffffffffffffffffffffffff168152505050856000806101000a81548173ffffffffffffffffffffffffffffffffffffffff021916908373ffffffffffffffffffffffffffffffffffffffff16021790555084600060146101000a81548167ffffffffffffffff021916908367ffffffffffffffff1602179055508360018190555082600260006101000a81548163ffffffff021916908363ffffffff16021790555081600260046101000a81548161ffff021916908361ffff16021790555080600260066101000a81548163ffffffff021916908363ffffffff160217905550336002600a6101000a81548173ffffffffffffffffffffffffffffffffffffffff021916908373ffffffffffffffffffffffffffffffffffffffff1602179055505050505050506200039f565b600080fd5b600073ffffffffffffffffffffffffffffffffffffffff82169050919050565b6000620001cb826200019e565b9050919050565b620001dd81620001be565b8114620001e957600080fd5b50565b600081519050620001fd81620001d2565b92915050565b600067ffffffffffffffff82169050919050565b620002228162000203565b81146200022e57600080fd5b50565b600081519050620002428162000217565b92915050565b6000819050919050565b6200025d8162000248565b81146200026957600080fd5b50565b6000815190506200027d8162000252565b92915050565b600063ffffffff82169050919050565b6200029e8162000283565b8114620002aa57600080fd5b50565b600081519050620002be8162000293565b92915050565b600061ffff82169050919050565b620002dd81620002c4565b8114620002e957600080fd5b50565b600081519050620002fd81620002d2565b92915050565b60008060008060008060c0878903121562000323576200032262000199565b5b60006200033389828a01620001ec565b96505060206200034689828a0162000231565b95505060406200035989828a016200026c565b94505060606200036c89828a01620002ad565b93505060806200037f89828a01620002ec565b92505060a06200039289828a01620002ad565b9150509295509295509295565b60805161198a620003c2600039600081816102ad0152610301015261198a6000f3fe6080604052600436106100ab5760003560e01c80637ccfd7fc116100645780637ccfd7fc146101a95780638ac00021146101d45780638da5cb5b146101ff5780639619367d1461022a578063b0fb162f14610255578063d667dcd714610280576100b2565b80631fe543e3146100b757806322af00fa146100e057806324f74697146101205780632a3ef71e1461014b5780633ccfd60b1461016757806361728f391461017e576100b2565b366100b257005b600080fd5b3480156100c357600080fd5b506100de60048036038101906100d99190610e0d565b6102ab565b005b3480156100ec57600080fd5b5061010760048036038101906101029190610e69565b61036b565b6040516101179493929190610f81565b60405180910390f35b34801561012c57600080fd5b50610135610450565b6040516101429190610fec565b60405180910390f35b6101656004803603810190610160919061108e565b610466565b005b34801561017357600080fd5b5061017c61075c565b005b34801561018a57600080fd5b50610193610857565b6040516101a09190611107565b60405180910390f35b3480156101b557600080fd5b506101be61085d565b6040516101cb9190610fec565b60405180910390f35b3480156101e057600080fd5b506101e9610873565b6040516101f69190611145565b60405180910390f35b34801561020b57600080fd5b5061021461088d565b6040516102219190611160565b60405180910390f35b34801561023657600080fd5b5061023f6108b3565b60405161024c919061117b565b60405180910390f35b34801561026157600080fd5b5061026a6108b9565b60405161027791906111b3565b60405180910390f35b34801561028c57600080fd5b506102956108cd565b6040516102a2919061117b565b60405180910390f35b7f000000000000000000000000000000000000000000000000000000000000000073ffffffffffffffffffffffffffffffffffffffff163373ffffffffffffffffffffffffffffffffffffffff161461035d57337f00000000000000000000000000000000000000000000000000000000000000006040517f1cf993f40000000000000000000000000000000000000000000000000000000081526004016103549291906111ce565b60405180910390fd5b61036782826108d3565b5050565b60056020528060005260406000206000915090508060000160009054906101000a900473ffffffffffffffffffffffffffffffffffffffff16908060010180546103b490611226565b80601f01602080910402602001604051908101604052809291908181526020018280546103e090611226565b801561042d5780601f106104025761010080835404028352916020019161042d565b820191906000526020600020905b81548152906001019060200180831161041057829003601f168201915b5050505050908060020160009054906101000a900460ff16908060030154905084565b600260009054906101000a900463ffffffff1681565b60258160ff16106104ac576040517f08c379a00000000000000000000000000000000000000000000000000000000081526004016104a3906112a3565b60405180910390fd5b6004543410156104f1576040517f08c379a00000000000000000000000000000000000000000000000000000000081526004016104e89061130f565b60405180910390fd5b60008060009054906101000a900473ffffffffffffffffffffffffffffffffffffffff1673ffffffffffffffffffffffffffffffffffffffff16635d3b1d30600154600060149054906101000a900467ffffffffffffffff16600260049054906101000a900461ffff16600260009054906101000a900463ffffffff16600260069054906101000a900463ffffffff166040518663ffffffff1660e01b81526004016105a195949392919061132f565b6020604051808303816000875af11580156105c0573d6000803e3d6000fd5b505050506040513d601f19601f820116820180604052508101906105e49190611397565b905060405180608001604052803373ffffffffffffffffffffffffffffffffffffffff16815260200185858080601f016020809104026020016040519081016040528093929190818152602001838380828437600081840152601f19601f8201169050808301925050505050505081526020018360ff168152602001348152506005600083815260200190815260200160002060008201518160000160006101000a81548173ffffffffffffffffffffffffffffffffffffffff021916908373ffffffffffffffffffffffffffffffffffffffff16021790555060208201518160010190816106d39190611570565b5060408201518160020160006101000a81548160ff021916908360ff160217905550606082015181600301559050503373ffffffffffffffffffffffffffffffffffffffff167f5149a01cd95673ec4aad2c9108486a7bf6e0394a2c0b7af3f3760be2d0c0d2eb8585853460405161074e949392919061167e565b60405180910390a250505050565b6002600a9054906101000a900473ffffffffffffffffffffffffffffffffffffffff1673ffffffffffffffffffffffffffffffffffffffff163373ffffffffffffffffffffffffffffffffffffffff16146107ec576040517f08c379a00000000000000000000000000000000000000000000000000000000081526004016107e39061170a565b60405180910390fd5b6002600a9054906101000a900473ffffffffffffffffffffffffffffffffffffffff1673ffffffffffffffffffffffffffffffffffffffff166108fc479081150290604051600060405180830381858888f19350505050158015610854573d6000803e3d6000fd5b50565b60015481565b600260069054906101000a900463ffffffff1681565b600060149054906101000a900467ffffffffffffffff1681565b6002600a9054906101000a900473ffffffffffffffffffffffffffffffffffffffff1681565b60045481565b600260049054906101000a900461ffff1681565b60035481565b6000600560008481526020019081526020016000206040518060800160405290816000820160009054906101000a900473ffffffffffffffffffffffffffffffffffffffff1673ffffffffffffffffffffffffffffffffffffffff1673ffffffffffffffffffffffffffffffffffffffff16815260200160018201805461095990611226565b80601f016020809104026020016040519081016040528092919081815260200182805461098590611226565b80156109d25780601f106109a7576101008083540402835291602001916109d2565b820191906000526020600020905b8154815290600101906020018083116109b557829003601f168201915b505050505081526020016002820160009054906101000a900460ff1660ff1660ff1681526020016003820154815250509050600073ffffffffffffffffffffffffffffffffffffffff16816000015173ffffffffffffffffffffffffffffffffffffffff1603610a77576040517f08c379a0000000000000000000000000000000000000000000000000000000008152600401610a6e90611776565b60405180910390fd5b6000602583600081518110610a8f57610a8e611796565b5b6020026020010151610aa191906117f4565b905060008160ff16836040015160ff161490508015610b43576000612710600354612710610acf9190611854565b60248660600151610ae09190611888565b610aea9190611888565b610af491906118ca565b9050836000015173ffffffffffffffffffffffffffffffffffffffff166108fc829081150290604051600060405180830381858888f19350505050158015610b40573d6000803e3d6000fd5b50505b826000015173ffffffffffffffffffffffffffffffffffffffff167fffa04f7d49613be46526dd8ecc5b7089be0ef0b58e47e75781fb70c074383a0a84602001518484604051610b9593929190611916565b60405180910390a260056000868152602001908152602001600020600080820160006101000a81549073ffffffffffffffffffffffffffffffffffffffff0219169055600182016000610be89190610c0d565b6002820160006101000a81549060ff0219169055600382016000905550505050505050565b508054610c1990611226565b6000825580601f10610c2b5750610c4a565b601f016020900490600052602060002090810190610c499190610c4d565b5b50565b5b80821115610c66576000816000905550600101610c4e565b5090565b6000604051905090565b600080fd5b600080fd5b6000819050919050565b610c9181610c7e565b8114610c9c57600080fd5b50565b600081359050610cae81610c88565b92915050565b600080fd5b6000601f19601f8301169050919050565b7f4e487b7100000000000000000000000000000000000000000000000000000000600052604160045260246000fd5b610d0282610cb9565b810181811067ffffffffffffffff82111715610d2157610d20610cca565b5b80604052505050565b6000610d34610c6a565b9050610d408282610cf9565b919050565b600067ffffffffffffffff821115610d6057610d5f610cca565b5b602082029050602081019050919050565b600080fd5b6000610d89610d8484610d45565b610d2a565b90508083825260208201905060208402830185811115610dac57610dab610d71565b5b835b81811015610dd55780610dc18882610c9f565b845260208401935050602081019050610dae565b5050509392505050565b600082601f830112610df457610df3610cb4565b5b8135610e04848260208601610d76565b91505092915050565b60008060408385031215610e2457610e23610c74565b5b6000610e3285828601610c9f565b925050602083013567ffffffffffffffff811115610e5357610e52610c79565b5b610e5f85828601610ddf565b9150509250929050565b600060208284031215610e7f57610e7e610c74565b5b6000610e8d84828501610c9f565b91505092915050565b600073ffffffffffffffffffffffffffffffffffffffff82169050919050565b6000610ec182610e96565b9050919050565b610ed181610eb6565b82525050565b600081519050919050565b600082825260208201905092915050565b60005b83811015610f11578082015181840152602081019050610ef6565b60008484015250505050565b6000610f2882610ed7565b610f328185610ee2565b9350610f42818560208601610ef3565b610f4b81610cb9565b840191505092915050565b600060ff82169050919050565b610f6c81610f56565b82525050565b610f7b81610c7e565b82525050565b6000608082019050610f966000830187610ec8565b8181036020830152610fa88186610f1d565b9050610fb76040830185610f63565b610fc46060830184610f72565b95945050505050565b600063ffffffff82169050919050565b610fe681610fcd565b82525050565b60006020820190506110016000830184610fdd565b92915050565b600080fd5b60008083601f84011261102257611021610cb4565b5b8235905067ffffffffffffffff81111561103f5761103e611007565b5b60208301915083600182028301111561105b5761105a610d71565b5b9250929050565b61106b81610f56565b811461107657600080fd5b50565b60008135905061108881611062565b92915050565b6000806000604084860312156110a7576110a6610c74565b5b600084013567ffffffffffffffff8111156110c5576110c4610c79565b5b6110d18682870161100c565b935093505060206110e486828701611079565b9150509250925092565b6000819050919050565b611101816110ee565b82525050565b600060208201905061111c60008301846110f8565b92915050565b600067ffffffffffffffff82169050919050565b61113f81611122565b82525050565b600060208201905061115a6000830184611136565b92915050565b60006020820190506111756000830184610ec8565b92915050565b60006020820190506111906000830184610f72565b92915050565b600061ffff82169050919050565b6111ad81611196565b82525050565b60006020820190506111c860008301846111a4565b92915050565b60006040820190506111e36000830185610ec8565b6111f06020830184610ec8565b9392505050565b7f4e487b7100000000000000000000000000000000000000000000000000000000600052602260045260246000fd5b6000600282049050600182168061123e57607f821691505b602082108103611251576112506111f7565b5b50919050565b7f43686f6f7365206e756d62657220302d33360000000000000000000000000000600082015250565b600061128d601283610ee2565b915061129882611257565b602082019050919050565b600060208201905081810360008301526112bc81611280565b9050919050565b7f426574206d757374206265206174206c65617374206d696e4265740000000000600082015250565b60006112f9601b83610ee2565b9150611304826112c3565b602082019050919050565b60006020820190508181036000830152611328816112ec565b9050919050565b600060a08201905061134460008301886110f8565b6113516020830187611136565b61135e60408301866111a4565b61136b6060830185610fdd565b6113786080830184610fdd565b9695505050505050565b60008151905061139181610c88565b92915050565b6000602082840312156113ad576113ac610c74565b5b60006113bb84828501611382565b91505092915050565b60008190508160005260206000209050919050565b60006020601f8301049050919050565b600082821b905092915050565b6000600883026114267fffffffffffffffffffffffffffffffffffffffffffffffffffffffffffffffff826113e9565b61143086836113e9565b95508019841693508086168417925050509392505050565b6000819050919050565b600061146d61146861146384610c7e565b611448565b610c7e565b9050919050565b6000819050919050565b61148783611452565b61149b61149382611474565b8484546113f6565b825550505050565b600090565b6114b06114a3565b6114bb81848461147e565b505050565b5b818110156114df576114d46000826114a8565b6001810190506114c1565b5050565b601f821115611524576114f5816113c4565b6114fe846113d9565b8101602085101561150d578190505b611521611519856113d9565b8301826114c0565b50505b505050565b600082821c905092915050565b600061154760001984600802611529565b1980831691505092915050565b60006115608383611536565b9150826002028217905092915050565b61157982610ed7565b67ffffffffffffffff81111561159257611591610cca565b5b61159c8254611226565b6115a78282856114e3565b600060209050601f8311600181146115da57600084156115c8578287015190505b6115d28582611554565b86555061163a565b601f1984166115e8866113c4565b60005b82811015611610578489015182556001820191506020850194506020810190506115eb565b8683101561162d5784890151611629601f891682611536565b8355505b6001600288020188555050505b505050505050565b82818337600083830152505050565b600061165d8385610ee2565b935061166a838584611642565b61167383610cb9565b840190509392505050565b60006060820190508181036000830152611699818688611651565b90506116a86020830185610f63565b6116b56040830184610f72565b95945050505050565b7f4f6e6c79206f776e657200000000000000000000000000000000000000000000600082015250565b60006116f4600a83610ee2565b91506116ff826116be565b602082019050919050565b60006020820190508181036000830152611723816116e7565b9050919050565b7f426574206e6f7420666f756e6400000000000000000000000000000000000000600082015250565b6000611760600d83610ee2565b915061176b8261172a565b602082019050919050565b6000602082019050818103600083015261178f81611753565b9050919050565b7f4e487b7100000000000000000000000000000000000000000000000000000000600052603260045260246000fd5b7f4e487b7100000000000000000000000000000000000000000000000000000000600052601260045260246000fd5b60006117ff82610c7e565b915061180a83610c7e565b92508261181a576118196117c5565b5b828206905092915050565b7f4e487b7100000000000000000000000000000000000000000000000000000000600052601160045260246000fd5b600061185f82610c7e565b915061186a83610c7e565b925082820390508181111561188257611881611825565b5b92915050565b600061189382610c7e565b915061189e83610c7e565b92508282026118ac81610c7e565b915082820484148315176118c3576118c2611825565b5b5092915050565b60006118d582610c7e565b91506118e083610c7e565b9250826118f0576118ef6117c5565b5b828204905092915050565b60008115159050919050565b611910816118fb565b82525050565b600060608201905081810360008301526119308186610f1d565b905061193f6020830185610f63565b61194c6040830184611907565b94935050505056fea264697066735822122076e829e7d6769e747fe4d17d4a2641ea56ad20d1a2053784ae776b280361665064736f6c63430008130033",
  "linkReferences": {},
  "deployedLinkReferences": {}
}